:100000000C940B010C943C010C943C010C943C01AD
:100010000C943C010C943C010C943C010C943C016C
:100020000C943C010C943C010C943C010C943C015C
:100030000C943C010C943C010C943C010C943C014C
:100040000C943C010C943C010C943C010C943C013C
:100050000C943C010C943C010C943C010C94A21CAB
:100060000C943C010C940D0C0C94FD0C0C943C0174
:100070000C943C010C943C010C943C010C943C010C
:100080000C943C010C943C010C943C010C943C01FC
:100090000C94410C0C943C0D0C943C010C943C01D0
:1000A0000C943C010C943C010C943C010C943C01DC
:1000B0000C943C010C943C010C943C010C943C01CC
:1000C0000C943C010C943C010C943C010C94750C78
:1000D0000C947B0D0C943C010C94A90C0C94BA0D5F
:1000E0000C943C0100002100240027002A002D0070
:1000F0003000330001010000040107010A01000083
:100100002200250028002B002E00310034000201BF
:100110000000050108010B0100002000230026005B
:1001200029002C002F00320000010000030106010D
:10013000090105050505070508080808020202026D
:100140000A0A080804040404010101010101010173
:100150000303030303030303040707070C0C0C0C3E
:100160000C0C0C0C02020202060606060606060627
:100170000B0B0B0B0B0B0B0B0102102020080810B4
:100180002040102040800201020108040201010207
:1001900004081020408080402010080402018004E0
:1001A000020180402010080402010804020101023B
:1001B0000408102040800102040810204080000044
:1001C000090A02080B0C0D070603040100000000D9
:1001D000000000000000000000000000000000001F
:1001E0000000000000000000000011100F000000DF
:1001F00000000000000000000000000000000000FF
:10020000000000004E022D056F0727094F0B990FC4
:100210001811FD2B3C2F11241FBECFEFD1E2DEBF02
:10022000CDBF00E00CBF14E0A0E0B2E0EEE4F8E7E0
:1002300000E00BBF02C007900D92A03EB107D9F7B6
:1002400019E0A0EEB4E001C01D92AD31B107E1F7B5
:1002500012E0C6E1D2E000E006C022970109FE01EB
:100260000BBF0E942638C430D10780E00807A9F7E9
:100270000E9447020C94253C0C940000FF920F93BF
:100280001F93DF93CF93CDB7DEB72D970FB6F894BA
:10029000DEBF0FBECDBF82E698E060E072E00E9454
:1002A00011128E010F5F1F4FC80167E075E00E94B9
:1002B000B108E091A502F091A602C8011995882322
:1002C000C9F082E698E060E172E00E941112F02E1F
:1002D000012F0AC08F2D902F6CE172E00E94111245
:1002E0008F2D902F0E94BC068F2D902F0E94980674
:1002F000882381F72D960FB6F894DEBF0FBECDBFD1
:10030000CF91DF911F910F91FF900895CF93DF93CD
:1003100082E698E064E272E00E94111280910D057D
:100320000E94A21EEC0180910F0590E0C817D9072A
:1003300049F082E698E068E372E00E94111281E0E1
:1003400080930F06C0930F05DF91CF9108958091A0
:100350000D0560E00E94251E08950F931F93DF9303
:10036000CF9300D000D0CDB7DEB78BE993E09A836E
:1003700089838091E8049091E904A091EA04B09106
:10038000EB048B839C83AD83BE830CEE14E0409121
:10039000750250917602C801BE016F5F7F4F0E94C7
:1003A0004F0AC8016EE075E042E050E00E94340A56
:1003B000C8010E944A0A82E698E069E572E00E945C
:1003C000111226960FB6F894DEBF0FBECDBFCF91A7
:1003D000DF911F910F9108950F931F93DF93CF9398
:1003E00000D000D0CDB7DEB702E618E0C80140E883
:1003F00055E260E070E00E943D0E8BE993E09A8345
:1004000089838091E2049091E304A091E404B09187
:10041000E5048B839C83AD83BE8382E296E06FE626
:1004200072E0AE014F5F5F4F0E943A0487E095E0B3
:100430000E9490076091790270917A028CEE94E0AC
:100440000E947B0A0E94A701C80163E672E00E9435
:10045000111226960FB6F894DEBF0FBECDBFCF9116
:10046000DF911F910F9108950E943E010E94860125
:1004700080910F06882321F00E94AD0110920F0693
:1004800068EE73E080E090E00E941E1D08950E94D7
:100490004F1D0E94EC010E943402FDCF0F9380E1BA
:1004A00096E060E040E020E000E00E94CC1080EEAA
:1004B00094E060EC48EA21E001EB0E94CC1086EE6B
:1004C00094E060EC48EA21E001E00E94CC108CEE60
:1004D00094E00E94B10A87E095E060E97FE10E9424
:1004E000DE070F910895BC0181E090E044E050E008
:1004F0000E9427230895BC0181E090E044E050E091
:100500000E947C240895BC0185E090E044E050E026
:100510000E9427230895BC0185E090E044E050E06C
:100520000E947C240895BC0189E090E046E050E000
:100530000E9427230895BC018FE090E044E050E042
:100540000E94272308950E949B020895BC018FE01A
:1005500090E044E050E00E947C240895CF92DF9226
:10056000EF92FF920F931F93DF93CF93CDB7DEB738
:100570006E970FB6F894DEBF0FBECDBF6C017B0146
:1005800082E690E00E948C1C8C0182E6F8011192B8
:100590008A95E9F7C801895B9F4F0E94B10AF6016D
:1005A000178306838CEF98E00E94EE22C7010E9419
:1005B0009302CE01019660E040E020E000E00E945E
:1005C000CC10CE0103960E94A302F601868197818A
:1005D000B70120E63AEE40E050E0E0EAEE2EEFE030
:1005E000FE2E012D112D0E94A52B8C01813091052D
:1005F00089F5F60166817781CE0107960E94AA27C8
:10060000CE0109960E94A302F60166817781CE0190
:100610000D960E94C027CE010F960E947302F6012C
:1006200066817781CE0143960E94B527CE0145961B
:100630000E948302F60166817781CE0149960E946D
:10064000D6278B8D9C8DAD8DBE8DF60182839383D5
:10065000A483B583C8016E960FB6F894DEBF0FBEB3
:10066000CDBFCF91DF911F910F91FF90EF90DF9061
:10067000CF9008958F929F92AF92BF92CF92DF92C8
:10068000EF92FF920F931F93CF93DF934C015B0187
:100690006A01E9018CEF98E00E94EE22C5010E94F8
:1006A0009302C60102960E94A302C80102960E940C
:1006B0007302C70102960E9483028A819B81AC81EA
:1006C000BD81F40182839383A483B583DF91CF91AD
:1006D0001F910F91FF90EF90DF90CF90BF90AF9060
:1006E0009F908F9008956F927F928F929F92AF927A
:1006F000BF92CF92DF92EF92FF920F931F93DF93FF
:10070000CF93CDB7DEB76E970FB6F894DEBF0FBEAE
:10071000CDBF3C014B015A0169017801CE01019620
:100720006FEF4FEF2FEF00E00E94CC102BE933E08A
:1007300038872F83F50182819381A481B5818987D0
:100740009A87AB87BC873E872D87F601828193818C
:10075000A481B5818F87988BA98BBA8B3C8B2B8B0F
:10076000F70182819381A481B5818D8B9E8BAF8BA4
:10077000B88F3A8F298F8B819C81AD81BE818B8F01
:100780009C8FAD8FBE8FC301B401AE01495F5F4F37
:100790009E01235F3F4F8E010D5E1F4FF9E1EF2E4B
:1007A000F12CEC0EFD1E0E943A036E960FB6F894E3
:1007B000DEBF0FBECDBFCF91DF911F910F91FF9094
:1007C000EF90DF90CF90BF90AF909F908F907F90F1
:1007D0006F900895CF92DF92EF92FF920F931F9345
:1007E000DF93CF93CDB7DEB768970FB6F894DEBF2F
:1007F0000FBECDBFF901DA0112960D911D912D9119
:100800003C9115970B831C832D833E834BE953E06A
:1008100058874F8309871A872B873C875E874D87C8
:10082000C280D380E480F580CF86D88AE98AFA8AAC
:100830005C8B4B8B0D8B1E8B2F8B388F21E0288F81
:10084000AE01495F5F4F9E01235F3F4F8E010D5EFA
:100850001F4F0E94730368960FB6F894DEBF0FBE59
:10086000CDBFCF91DF911F910F91FF90EF90DF905F
:10087000CF900895DF93CF93CDB7DEB762970FB6D1
:10088000F894DEBF0FBECDBFFA01228133814481CF
:1008900055812B833C834D835E83EBE9F3E0F8873E
:1008A000EF8329873A874B875C87FE87ED872F8701
:1008B000388B498B5A8B21E02A8BAE01495F5F4F01
:1008C0009E01235F3F4F0E94EA0362960FB6F894A1
:1008D000DEBF0FBECDBFCF91DF910895EF92FF92A3
:1008E0000F931F93DF93CF93CDB7DEB768970FB603
:1008F000F894DEBF0FBECDBF8C01FC0186819781CD
:100900000097E1F10E94CF2A7C018230910521F00D
:1009100084E0E816F104A1F5F80166817781CE0143
:1009200001960E94AA27CE0103960E94A302F80115
:1009300066817781CE0107960E94C027CE01099675
:100940000E947302F80166817781CE010D960E94A4
:10095000B527CE010F960E948302F8016681778148
:10096000CE0143960E94D6278D899E89AF89B88D86
:10097000F80182839383A483B58302C0EE24FF240D
:10098000C70168960FB6F894DEBF0FBECDBFCF91FA
:10099000DF911F910F91FF90EF900895EF92FF92DA
:1009A0000F931F93CF93DF938C01E82EE7017E0115
:1009B000F12EC7010E94C210C70102960E94A60232
:1009C000C801DF91CF911F910F91FF90EF90089593
:1009D000EF92FF920F931F93CF93DF938C01E82E3A
:1009E000E7017E01F12EC7010E94C210C7010296E5
:1009F0000E948B02C801DF91CF911F910F91FF9050
:100A0000EF900895EF92FF920F931F93CF93DF9390
:100A10008C01E82EE7017E01F12EC7010E94C21071
:100A2000C70102960E947B02C801DF91CF911F91FE
:100A30000F91FF90EF900895FC012BE933E0318393
:100A40002083DB0112962D913D914D915C9115977C
:100A5000228333834483558308950F938AE296E07B
:100A600060E040E020E000E00E94CC1082E296E0EE
:100A70000E94C2100F910895DF93CF930F92CDB7CC
:100A8000DEB76983DC01ED91FC910280F381E02DFA
:100A9000BE016F5F7F4F41E050E019950F90CF91FD
:100AA000DF910895CF93DF93EC0107C0E881F981CE
:100AB0000680F781E02DCE011995E881F981048047
:100AC000F581E02DCE011995009781F7DF91CF9147
:100AD000089521E0FC018485843009F420E0822F10
:100AE00008950F931F93DF93CF930F92CDB7DEB787
:100AF0008C01DC01ED91FC910480F581E02D1995CC
:100B0000009751F0F8018485BE016F5F7F4F0E940E
:100B10009520298130E002C02FEF3FEFC9010F90EF
:100B2000CF91DF911F910F910895FC0184850E9460
:100B30004E200895DF93CF930F92CDB7DEB7FC011F
:100B40008485BE016F5F7F4F41E050E00E944E20E0
:100B5000181619061CF4298130E002C02FEF3FEF70
:100B6000C9010F90CF91DF910895FC016485643035
:100B700039F08CEF98E00E942924282F392F02C0E9
:100B800020E030E0C9010895EF92FF920F931F9388
:100B9000CF93DF938C01EA01FC018485843019F442
:100BA00081E090E007C00E94FC1F009739F481E0CB
:100BB00090E0F80193838283C0E0D0E0CE01DF9122
:100BC000CF911F910F91FF90EF90089590E00496C0
:100BD000982F8827860F971F0E945A23089563E055
:100BE00070E00E94E6050895FC011382128228EE4F
:100BF00033E040E050E024833583468357838FE819
:100C000092E09183808384E084870895FC011382BD
:100C1000128228EE33E040E050E02483358346839F
:100C200057838FE892E09183808364870895CF9300
:100C3000DF93EC010E94C210CE0108960E94B10A17
:100C4000DF91CF9108956F927F928F929F92AF9292
:100C5000BF92CF92DF92EF92FF920F931F93DF9399
:100C6000CF93CDB7DEB7E5970FB6F894DEBF0FBED2
:100C7000CDBF5C014B013A0133E1E32EF12CEC0EC8
:100C8000FD1EC7010E9417066E010894C11CD11CED
:100C9000C6010E94C2108E01095F1F4FC80162E2A7
:100CA00076E00E941C05C701B8010E94192CC701FB
:100CB000B401A6010E949E2E9C0181309105C9F4C9
:100CC000D501ED91FC910484F585E02D8BE993E04D
:100CD0009E878D878B819C81AD81BE818F87988B0C
:100CE000A98BBA8BC501BE01635F7F4FA301199524
:100CF0009C01C901E5960FB6F894DEBF0FBECDBFCB
:100D0000CF91DF911F910F91FF90EF90DF90CF90E7
:100D1000BF90AF909F908F907F906F900895FC014F
:100D20008485843019F00E94EF05089580E00895CD
:100D3000CF93DF93EC018C858430D1F0CE010E94FB
:100D40008F06843181F0882371F0883161F08C3115
:100D500061F4E881F9810480F581E02DCE011995D7
:100D600021E0009719F420E001C021E0822F01C0AA
:100D700080E0DF91CF910895EF92FF920F931F9340
:100D8000CF93DF93EC018C858430A1F10E94F51F95
:100D90000E94EA1C7B018C01CE010E948F068823F1
:100DA00019F10E94EA1C6E197F09800B910B683EB5
:100DB00023E0720720E0820720E09207A8F461E0B8
:100DC00070E080E090E00E941E1DE6CF8C850E94BE
:100DD0005B1FEC85F0E0EE0FFF1FE65EF94F11821E
:100DE000108284E08C8706C0CE010E948F06882383
:100DF00081F3ECCFDF91CF911F910F91FF90EF9096
:100E00000895BF92CF92DF92EF92FF920F931F93BC
:100E1000CF93DF93EC018B016A018C85843009F05C
:100E200051C0EE24FF24BE2C8E2D0E94EF05882396
:100E300021F0883111F08C3111F4BC8607C0089480
:100E4000E11CF11C84E0E816F10469F78C8584301C
:100E5000C9F12091890230918A022F5F3F4F309370
:100E60008A02209389022115310531F420E034E013
:100E700030938A02209389024091890250918A021C
:100E800061E020E00E94691FB8016E5F7F4F8C8592
:100E9000A6010E94C01F09C061E070E080E090E000
:100EA0000E941E1DCE010E948F06882319F484E043
:100EB0008C8708C0CE010E948F06873169F721E038
:100EC00030E002C020E030E0C901DF91CF911F91F6
:100ED0000F91FF90EF90DF90CF90BF9008950F9308
:100EE00080E396E060E040E020E000E00E94CC106B
:100EF0000F910895DF93CF930F92CDB7DEB769833B
:100F0000DC01ED91FC910280F381E02DBE016F5F69
:100F10007F4F41E050E019950F90CF91DF910895F8
:100F2000CF92DF92EF92FF920F931F93DF93CF93B5
:100F3000CDB7DEB72D970FB6F894DEBF0FBECDBF8D
:100F40006C0100E010E07E010894E11CF11CC70177
:100F5000602F0E940606C7010E948F068823D1F4E5
:100F6000D60114964D915C911597802F61E020E099
:100F70000E94691F802F0E94A81FF801EE0FFF1F1B
:100F8000E65EF94FD60114968D919C911597918349
:100F9000808305C00F5F1F4F03301105C1F62D96EA
:100FA0000FB6F894DEBF0FBECDBFCF91DF911F917A
:100FB0000F91FF90EF90DF90CF900895FC01138286
:100FC00012828DED92E0918380837583648308950E
:100FD0008F929F92AF92BF92CF92DF92EF92FF9249
:100FE0000F931F93DF93CF93CDB7DEB72D970FB637
:100FF000F894DEBF0FBECDBF6C012AE1A22E26E021
:10100000B22EEE24FF24882499248E010F5F1F4FF7
:10101000C8016E2D0E940606D5012D913D915D01FE
:10102000F6018481958128173907B1F4C8010E941F
:101030008F06843171F0C8010E948F068C3161F4F3
:10104000C8010E94B505009739F4C8010E94BC068A
:1010500003C091E0892E912C0894E11CF11CF3E06F
:10106000EF16F104A9F68114910441F4D601ED9133
:10107000FC910480F581E02DC60119952D960FB6DF
:10108000F894DEBF0FBECDBFCF91DF911F910F91BE
:10109000FF90EF90DF90CF90BF90AF909F908F9098
:1010A00008954F925F926F927F928F929F92AF922C
:1010B000BF92CF92DF92EF92FF920F931F93DF9335
:1010C000CF93CDB7DEB72D970FB6F894DEBF0FBE26
:1010D000CDBF5C013B012A010E94E8073AE1832E63
:1010E00036E0932E00E010E0CC24DD247E0108944D
:1010F000E11CF11CC701602F0E940606F40121913A
:1011000031914F01F501848195812817390761F4E8
:10111000C7010E948F06873139F4C701B301A201CC
:101120000E94C405C80ED91E0F5F1F4F0330110562
:1011300009F7C6012D960FB6F894DEBF0FBECDBFDE
:10114000CF91DF911F910F91FF90EF90DF90CF90A3
:10115000BF90AF909F908F907F906F905F904F90D7
:1011600008958F929F92AF92BF92CF92DF92EF92AB
:10117000FF920F931F93DF93CF93CDB7DEB72D97D9
:101180000FB6F894DEBF0FBECDBF4C016B01CB0193
:101190000E94E8074AE1A42E46E0B42E00E010E0E9
:1011A0007E010894E11CF11CC701602F0E94060615
:1011B000F501219131915F01F60184819581281714
:1011C000390759F5C7010E948F06873129F0C701F9
:1011D0000E948F068C3109F5F4018B819C819383E9
:1011E00082838D819E81AF81B88584839583A68318
:1011F000B78389859A85AB85BC8580879187A287CF
:10120000B3878FE892E0918380838D8584870BC0BC
:10121000C40164E00E94060606C00F5F1F4F033042
:10122000110511F6F5CFC4012D960FB6F894DEBF67
:101230000FBECDBFCF91DF911F910F91FF90EF9027
:10124000DF90CF90BF90AF909F908F9008950F93B5
:1012500086E396E060E040E020E000E00E94CC10F1
:101260000F910895DC01ED91FC91008CF18DE02D42
:1012700019950895FC012BE933E031832083DB01CC
:1012800051962D913D914D915C91549722833383DA
:10129000448355830895FC01858996890895FC014E
:1012A000818D928D0895DF93CF930F92CDB7DEB7E6
:1012B0006983DC01ED91FC910280F381E02DBE0198
:1012C0006F5F7F4F41E050E019950F90CF91DF9114
:1012D0000895CF93DF93EC0107C0E881F981068080
:1012E000F781E02DCE011995898D9A8D0097A9F788
:1012F000DF91CF910895DF93CF930F92CDB7DEB7F3
:10130000FC01818D928D009749F08485BE016F5F4D
:101310007F4F0E949520298130E002C02FEF3FEFE0
:10132000C9010F90CF91DF910895CF93DF93EC0126
:10133000298D3A8D21153105A1F04217530718F078
:101340008C85A90101C08C850E944E209C01181635
:1013500019063CF4898D9A8D821B930B9A8F898F85
:1013600002C02FEF3FEFC901DF91CF9108950F9396
:101370001F93DF93CF930F92CDB7DEB78C01FC01A3
:10138000818D928D0097A1F08485BE016F5F7F4FA4
:1013900041E050E00E944E20181619064CF4F80166
:1013A000818D928D0197928F818F298130E002C0CB
:1013B0002FEF3FEFC9010F90CF91DF911F910F9158
:1013C0000895EF92FF920F931F93DF93CF93CDB7C2
:1013D000DEB728970FB6F894DEBF0FBECDBF8C01E5
:1013E000DC01ED91FC910284F385E02D19958CEFE1
:1013F00098E0F80164850E942924009729F1D8011A
:101400001C968C917E010894E11CF11CB70148E008
:1014100050E00E944E209C0118161906BCF4C80129
:101420000F96B7010E94F2109D8180E02E81820FFD
:10143000911DF801968B858B3F8120E08885280FD0
:10144000311D328F218F02C020E030E0C901289683
:101450000FB6F894DEBF0FBECDBFCF91DF911F91C5
:101460000F91FF90EF900895CF93DF93EC01FB0174
:101470009A016F89788D8C85AF010E94FA219C01B9
:101480008F89988D820F931F988F8F8BC901DF9161
:10149000CF910895FC0184850E9456220895FC0195
:1014A000108E178A6E5F7F4F84850E9430220895C8
:1014B000CF93DF93EC018C85843061F00E945B1F39
:1014C000EC85F0E0EE0FFF1FE65EF94F118210820F
:1014D00084E08C87DF91CF91089590E00496982F57
:1014E0008827860F971F0E945A23089563E070E0B3
:1014F0000E94E6050895DF92EF92FF920F931F93EB
:10150000CF93DF93EC018B018C85843009F5EE24B9
:10151000FF24DE2C8E2D0E94EF05882311F08831E8
:1015200011F4DC8607C00894E11CF11C84E0E81685
:10153000F10479F78C85843059F01E870D871A8E57
:10154000198E62E0A80120E00E94691F81E001C0BD
:1015500080E0DF91CF911F910F91FF90EF90DF908E
:101560000895FC011382128228EE33E040E050E03F
:1015700024833583468357838DE193E09183808371
:1015800084E08487CF010F960E94C2100895CF9304
:10159000DF93EC010E94C2101B861A8688EE93E04E
:1015A000A0E0B0E08C879D87AE87BF878DE193E098
:1015B0009987888784E08C8BCE0147960E94C21061
:1015C000DF91CF9108956F927F928F929F92AF9209
:1015D000BF92CF92DF92EF92FF920F931F93DF9310
:1015E000CF93CDB7DEB7E5970FB6F894DEBF0FBE49
:1015F000CDBF5C014B013A0133E1E32EF12CEC0E3F
:10160000FD1EC7010E9417066E010894C11CD11C63
:10161000C6010E94C2108E01095F1F4FC80162E21D
:1016200076E00E941C05C701B8010E94192CC70171
:10163000B401A6010E949E2E9C0181309105C9F43F
:10164000D501ED91FC910088F189E02D8BE993E0C3
:101650009E878D878B819C81AD81BE818F87988B82
:10166000A98BBA8BC501BE01635F7F4FA30119959A
:101670009C01C901E5960FB6F894DEBF0FBECDBF41
:10168000CF91DF911F910F91FF90EF90DF90CF905E
:10169000BF90AF909F908F907F906F9008950F9321
:1016A0008CE396E060E040E020E000E00E94CC1097
:1016B0000F910895FC0184859585FC01E05CFF4F46
:1016C000208131818E5B9F4FFC0180819181281B9D
:1016D000390B2F733070C9010895FC0184859585FD
:1016E000FC01E05CFF4F40815181FC01EE5BFF4F4C
:1016F000208131814217530741F00190F081E02DA4
:10170000E80FF91F208130E002C02FEF3FEFC90141
:101710000895FC0184859585FC01E05CFF4F4081C4
:101720005181FC01EE5BFF4F20813181421753074D
:1017300071F0A081B181A80FB91F2C918081918196
:1017400001968F7390709183808330E002C02FEFF9
:101750003FEFC9010895FC0181A1882329F0A489E4
:10176000B5898C9186FFFBCF11A20895FC012685D7
:101770003785D901A05CBF4F8D919C9101968F73E5
:101780009070D901AE5BBF4F4D915C91119784175A
:101790009507D1F3D901A05CBF4F0D90BC91A02D4E
:1017A000A20FB31F6C93A685B785A05CBF4F11969F
:1017B0009C938E93A689B7892C9181E090E0078C49
:1017C00002C0880F991F0A94E2F7282B2C9381E01E
:1017D00081A30488F589E02D80818064808381E085
:1017E00090E00895FB01E05CFF4F208131812F5F85
:1017F0003F4F2F733070DB01AE5BBF4F4D915C915B
:1018000011972417350739F0A081B181A60FB71FB2
:101810008C9331832083089508951F920F920FB601
:101820000F920BB60F9211242F933F934F935F9318
:101830006F937F938F939F93AF93BF93EF93FF9398
:101840008091C00082FD07C08091C60062E476E00E
:101850000E94F20B02C08091C600FF91EF91BF91F0
:10186000AF919F918F917F916F915F914F913F9138
:101870002F910F900BBE0F900FBE0F901F901895D9
:1018800008951F920F920FB60F920BB60F9211246C
:101890002F933F934F935F936F937F938F939F9378
:1018A000AF93BF93EF93FF938091C80082FD07C071
:1018B0008091CE006AEC76E00E94F20B02C080912B
:1018C000CE00FF91EF91BF91AF919F918F917F914A
:1018D0006F915F914F913F912F910F900BBE0F90A1
:1018E0000FBE0F901F90189508951F920F920FB67C
:1018F0000F920BB60F9211242F933F934F935F9348
:101900006F937F938F939F93AF93BF93EF93FF93C7
:101910008091D00082FD07C08091D60062E577E01B
:101920000E94F20B02C08091D600FF91EF91BF910F
:10193000AF919F918F917F916F915F914F913F9167
:101940002F910F900BBE0F900FBE0F901F90189508
:1019500008951F920F920FB60F920BB60F9211249B
:101960002F933F934F935F936F937F938F939F93A7
:10197000AF93BF93EF93FF938091300182FD07C037
:10198000809136016AED77E00E94F20B02C08091EF
:101990003601FF91EF91BF91AF919F918F917F9110
:1019A0006F915F914F913F912F910F900BBE0F90D0
:1019B0000FBE0F901F90189582E698E00E945A0B78
:1019C000009711F00E940C0C84E898E00E945A0BDA
:1019D000009711F00E94400C86EA98E00E945A0B92
:1019E000009711F00E94740C88EC98E00E945A0B4A
:1019F000009711F00E94A80C08951F920F920FB645
:101A00000F920BB60F9211242F933F938F939F93B6
:101A1000EF93FF932091C6063091C7068091C806C8
:101A20009091C9062817390731F48091C1008F7D44
:101A30008093C10014C0E091C806F091C906EA572E
:101A4000F94F20818091C8069091C90601968F7345
:101A500090709093C9068093C8062093C600FF91AA
:101A6000EF919F918F913F912F910F900BBE0F900F
:101A70000FBE0F901F9018951F920F920FB60F92E6
:101A80000BB60F9211242F933F938F939F93EF9355
:101A9000FF9320914E0730914F078091500790910E
:101AA00051072817390731F48091C9008F7D809341
:101AB000C90014C0E0915007F0915107E25FF84F60
:101AC0002081809150079091510701968F739070FB
:101AD00090935107809350072093CE00FF91EF9190
:101AE0009F918F913F912F910F900BBE0F900FBE42
:101AF0000F901F9018951F920F920FB60F920BB672
:101B00000F9211242F933F938F939F93EF93FF9303
:101B10002091D6073091D7078091D8079091D907A7
:101B20002817390731F48091D1008F7D8093D1003F
:101B300014C0E091D807F091D907EA56F84F2081F8
:101B40008091D8079091D90701968F7390709093E8
:101B5000D9078093D8072093D600FF91EF919F91EA
:101B60008F913F912F910F900BBE0F900FBE0F9052
:101B70001F9018951F920F920FB60F920BB60F92EF
:101B800011242F933F938F939F93EF93FF93209173
:101B90005E0830915F088091600890916108281775
:101BA000390731F4809131018F7D8093310114C068
:101BB000E0916008F0916108E25EF74F208180912A
:101BC00060089091610801968F73907090936108FE
:101BD0008093600820933601FF91EF919F918F9140
:101BE0003F912F910F900BBE0F900FBE0F901F9043
:101BF00018958F929F92AF92BF92CF92DF92EF9201
:101C0000FF920F931F93DF93CF93CDB7DEB7FC0105
:101C10001382128288EE93E0A0E0B0E08483958383
:101C2000A683B7838BE793E091838083758764876E
:101C300057874687318B208B138B028BF58AE48A7A
:101C4000D78AC68AB18EA08E938E828E8889848F21
:101C50008989858F8A89868F8B89878F8C8980A3D4
:101C6000CF91DF911F910F91FF90EF90DF90CF9078
:101C7000BF90AF909F908F900895DF92EF92FF9268
:101C80000F931F93CF93DF93EC017A018B01DD2437
:101C9000D394403081EE580780E0680780E07807F1
:101CA00049F4DD24EC89FD89108260E874E88EE156
:101CB00090E00FC0EC89FD8981E090E008A002C0AF
:101CC000880F991F0A94E2F7808360E079E08DE342
:101CD00090E0A80197010E94B23721503040404067
:101CE0005040569547953795279580E12030380725
:101CF00010F0DD20B1F6E889F9893083EA89FB89A3
:101D0000208319A2EE89FF89408181E090E09C0147
:101D10000C8C02C0220F331F0A94E2F7422B40833F
:101D2000EE89FF8940819C010D8C02C0220F331F78
:101D30000A94E2F7422B4083EE89FF8940819C019F
:101D40000E8C02C0220F331F0A94E2F7422B40830D
:101D5000EE89FF8920810F8C02C0880F991F0A9499
:101D6000E2F7809582238083DF91CF911F910F91BD
:101D7000FF90EF90DF900895CF92DF92EF92FF9265
:101D80000F931F93CF93DF93EC017A018B01C22E47
:101D9000DD24D394403081EE580780E0680780E06E
:101DA000780749F4DD24EC89FD89108260E874E845
:101DB0008EE190E00FC0EC89FD8981E090E008A001
:101DC00002C0880F991F0A94E2F7808360E079E0EF
:101DD0008DE390E0A80197010E94B2372150304076
:101DE00040405040569547953795279580E12030E3
:101DF000380710F0DD20B1F6E889F9893083EA89E7
:101E0000FB892083E88DF98DC082EE89FF894081AE
:101E100081E090E09C010C8C02C0220F331F0A94D9
:101E2000E2F7422B4083EE89FF8940819C010D8CB3
:101E300002C0220F331F0A94E2F7422B4083EE893F
:101E4000FF8940819C010E8C02C0220F331F0A942F
:101E5000E2F7422B4083EE89FF8920810F8C02C07C
:101E6000880F991F0A94E2F7809582238083DF917F
:101E7000CF911F910F91FF90EF90DF90CF90089539
:101E8000CF93DF93FC0186859785DC01A05CBF4F73
:101E90008E5B9F4F4D915C911197EC0128813981A8
:101EA00042175307B9F7A689B7894C9181E090E0B2
:101EB0009C01048C02C0220F331F0A94E2F7209584
:101EC00024232C93A689B7894C919C01058C02C0D0
:101ED000220F331F0A94E2F7209524232C93A6891E
:101EE000B7894C919C01068C02C0220F331F0A94C3
:101EF000E2F7209524232C93A689B7892C91078C8F
:101F000002C0880F991F0A94E2F7809582238C9370
:101F100084859585FC01EE5BFF4F20813181805CDB
:101F20009F4FFC0131832083DF91CF91089581E0A1
:101F300008951F93CF93DF93109265081092640861
:101F400088EE93E0A0E0B0E0809366089093670885
:101F5000A0936808B0936908E4E6F8E02BE733E063
:101F60003293229342E456E05587448746E856E090
:101F70005787468745EC50E0518B408B44EC50E04E
:101F8000538B428B40EC50E0558B448B41EC50E03E
:101F9000578B468B42EC50E0518F408F46EC50E01F
:101FA000538F428F14E0148F73E0758F67E0668F54
:101FB00055E0578F41E040A31092870810928608A1
:101FC0008093880890938908A0938A08B0938B081F
:101FD000E6E8F8E032932293CAECD6E0D587C487CE
:101FE000CEE0D7E0D787C687CDECD0E0D18BC08BD1
:101FF000CCECD0E0D38BC28BC8ECD0E0D58BC48BBB
:10200000C9ECD0E0D78BC68BCAECD0E0D18FC08FA3
:10201000CEECD0E0D38FC28F148F758F668F578F21
:1020200040A31092A9081092A8088093AA08909340
:10203000AB08A093AC08B093AD08E8EAF8E032939F
:102040002293C2E5D7E0D587C487C6E9D7E0D78712
:10205000C687C5EDD0E0D18BC08BC4EDD0E0D38B6B
:10206000C28BC0EDD0E0D58BC48BC1EDD0E0D78B57
:10207000C68BC2EDD0E0D18FC08FC6EDD0E0D38F3C
:10208000C28F148F758F668F578F40A31092CB0825
:102090001092CA088093CC089093CD08A093CE08E4
:1020A000B093CF08EAECF8E0329322938AED97E000
:1020B000958784878EE198E09787868785E391E00E
:1020C000918B808B84E391E0938B828B80E391E012
:1020D000958B848B81E391E0978B868B82E391E0F3
:1020E000918F808F86E391E0938F828F148F758F0D
:1020F000668F578F40A3DF91CF911F9108958F92E4
:102100009F92AF92BF92CF92DF92EF92FF920F9386
:102110001F93CF93DF934C017B0182E0A82EB12C5B
:10212000A80CB91CC0E0D0E0CC24DD24F5016191FD
:102130005F01C7014AE050E00E94E4128C01C70130
:102140006EE20E94C311080F191FC00ED11E219606
:10215000C330D10559F7C701F40165814AE050E069
:102160000E94E412C80ED91EC601DF91CF911F91C3
:102170000F91FF90EF90DF90CF90BF90AF909F9026
:102180008F900895FC018BE993E091838083128204
:1021900013821482158208950F93FC018BE993E05A
:1021A0009183808362834383248305830F91089501
:1021B000FC018BE993E091838083428353836483A2
:1021C00075830895FC018BE993E091838083DB01A3
:1021D0002D913D914D915C911397228333834483DC
:1021E00055830895CF93DF93FC01EB01888199819A
:1021F000AA81BB8182839383A483B583CF01DF91BE
:10220000CF910895FC0142835383648375830895BD
:102210009B01BC016E5F7F4FC90144E050E00E940A
:10222000D43A9C0181E02115310509F080E0089540
:102230008BE993E09093EB088093EA081092EC0806
:102240001092ED081092EE081092EF080895CF92C8
:10225000DF92EF92FF920F931F93CF93DF936C0166
:102260007B018A01C0E0D0E00FC0D7016D917D01F4
:10227000D601ED91FC910190F081E02DC6011995F8
:10228000C80FD91F015010400115110571F7CE017B
:10229000DF91CF911F910F91FF90EF90DF90CF9042
:1022A00008956115710591F0DB010D900020E9F7AB
:1022B000AD0141505040461B570BDC01ED91FC91A4
:1022C0000280F381E02D19959C0102C020E030E0EE
:1022D000C9010895EF92FF920F931F93CF93DF935D
:1022E0007C01062F172FC0E0D0E0F8010F5F1F4FD1
:1022F0006491662351F0F701A081B181ED91FC91C9
:10230000C7011995C80FD91FF0CFCE01DF91CF912A
:102310001F910F91FF90EF900895AF92BF92CF92CF
:10232000DF92EF92FF920F931F93CF93DF937C0185
:102330006B01C0E0D0E000E010E010C0D701ED91EB
:10234000FC91A080B180C601BE010E946A19682F6D
:10235000C701F5011995080F191F2196F60184810F
:102360009581C817D90750F3C801DF91CF911F910C
:102370000F91FF90EF90DF90CF90BF90AF900895B6
:102380000E9451110895DC01ED91FC910190F081C2
:10239000E02D199508959C01CB01DB01ED91FC9195
:1023A0000190F081E02DB901199508950F931F93C5
:1023B000CF93DF93EC016DE00E94C3118C01CE013D
:1023C0006AE00E94C311080F191FC801DF91CF9165
:1023D0001F910F9108950F931F93CF93DF93EC01FB
:1023E0000E946A118C01CE010E94D611080F191F9C
:1023F000C801DF91CF911F910F9108950F931F9303
:10240000CF93DF93EC010E948D118C01CE010E94CD
:10241000D611080F191FC801DF91CF911F910F919D
:1024200008950F931F93CF93DF93EC010E945111F6
:102430008C01CE010E94D611080F191FC801DF912F
:10244000CF911F910F9108950F931F93CF93DF9317
:10245000EC010E94C3118C01CE010E94D611080F1D
:10246000191FC801DF91CF911F910F9108950F930C
:102470001F93CF93DF93EC010E94CB118C01CE010F
:102480000E94D611080F191FC801DF91CF911F912B
:102490000F9108958F929F92AF92BF92CF92DF9249
:1024A000EF92FF920F931F93DF93CF93CDB7DEB7D9
:1024B000A1970FB6F894DEBF0FBECDBF6C01042FFD
:1024C000E52FCB01122F19A2223008F41AE021E2E5
:1024D000E22EF12CEC0EFD1E812E9924AA24BB24A1
:1024E00003C0022FE32FCA01602F7E2FA5019401A4
:1024F0000E94B237129F802D1124081B0894E10816
:10250000F1080A3010F4005D01C0095CF701008396
:10251000211531054105510521F7C601B7010E947A
:102520005111A1960FB6F894DEBF0FBECDBFCF916B
:10253000DF911F910F91FF90EF90DF90CF90BF90B0
:10254000AF909F908F9008952115310549F4DC01DB
:10255000ED91FC910190F081E02D642F1995089583
:102560000E944A1208950F931F93CF93DF93EC01BB
:102570000E94A4128C01CE010E94D611080F191FCF
:10258000C801DF91CF911F910F9108959A01AB017E
:1025900060E070E00E94A41208950F931F93CF9300
:1025A000DF93EC019A01AB0160E070E00E94A4129D
:1025B0008C01CE010E94D611080F191FC801DF91AE
:1025C000CF911F910F9108959A01462F50E060E03E
:1025D00070E00E94A41208950F931F93CF93DF938E
:1025E000EC019A01462F50E060E070E00E94A412D6
:1025F0008C01CE010E94D611080F191FC801DF916E
:10260000CF911F910F910895CF92DF92EF92FF9299
:102610000F931F93CF93DF93EC017A018B01211568
:10262000310541F4E881F9810190F081E02D642FBA
:1026300019951AC02A303105A9F477FF12C06DE24E
:102640000E94C3116C0144275527BA014E195F0936
:10265000600B710BCE012AE00E944A12C80ED91EEF
:1026600004C02AE00E944A126C01C601DF91CF919A
:102670001F910F91FF90EF90DF90CF9008950F93EF
:102680001F93CF93DF93EC010E9404138C01CE01C2
:102690000E94D611080F191FC801DF91CF911F9119
:1026A0000F9108959A01FB01AF01662757FD6095D0
:1026B000762F0E94041308950F931F93CF93DF93F7
:1026C000EC019A01CB01AC01662757FD6095762F8E
:1026D000CE010E9404138C01CE010E94D611080F76
:1026E000191FC801DF91CF911F910F9108956F922B
:1026F0007F928F929F92AF92BF92CF92DF92EF9292
:10270000FF920F931F93CF93DF93EC015A016B015C
:10271000822ECB01BA01A60195010E945234882372
:1027200021F0CE0163EA73E01BC086017501E894D5
:1027300017F9C801B7012FEF3FEF4FE75FE70E949E
:102740005234882389F4C801B7012FEF3FEF4FE7D8
:102750005FE70E94223418163CF4CE0167EA73E06A
:102760000E9451115C01AFC0C601B5012FEF3FEFD0
:102770004FE75FE40E949233181654F0C601B5018A
:102780002FEF3FEF4FE75FEC0E94F23387FF04C06B
:10279000CE016BEA73E0E4CFC601B50120E030E082
:1027A000A9010E94F23387FF0AC0CE016DE20E94A8
:1027B000C3113C01D7FAD094D7F8D09402C0662454
:1027C000772410E050E040E030E02FE311C0DA0160
:1027D000F9016B2F742F8F2F922F20E030E040E211
:1027E00051E40E94E432562F472F382F292F1F5FC4
:1027F000181568F3C601B501DA01F9012B2F342F42
:102800004F2F5E2F0E948C31D62EF72E082FC92E07
:102810000E941630162FE72E5C010E9431359B0175
:10282000AC016D2D7F2D802F9C2D0E94B9316B0145
:10283000F82E092FCE01412F5E2DB5012AE030E0A0
:102840000E94A4125C01A60CB71C8820D1F1CE0115
:102850006FEA73E00E945111A80EB91E32C06C2DB0
:102860007D2D8F2D902F20E030E040E251E40E943A
:10287000EA31D62EC72E982E792EA601652F742FF9
:102880000E94DF347B010027F7FC0095102FCE015A
:10289000B801A7012AE030E00E940413A80EB91E77
:1028A000C801B7010E947F349B01AC01D6016B2F98
:1028B0007A2F892D972D0E94B9316B01F82E092F9F
:1028C0008A94882061F6C501DF91CF911F910F9105
:1028D000FF90EF90DF90CF90BF90AF909F908F9040
:1028E0007F906F9008950E94771308950F931F9320
:1028F000CF93DF93EC010E9477138C01CE010E94ED
:10290000D611080F191FC801DF91CF911F910F91A8
:102910000895FC01808191810E94C4380895CF936D
:10292000DF93EC0188819981009711F00E94C438EF
:10293000198218821D821C821B821A82DF91CF911C
:1029400008950F931F93CF93DF93EC018B016F5F7B
:102950007F4F888199810E94BC39009731F099831B
:1029600088831B830A8381E001C080E0DF91CF91DF
:102970001F910F910895CF93DF93EC018881998186
:10298000009729F08A819B818617970778F4CE01FA
:102990000E94A114882341F08C819D81009731F41D
:1029A000E881F981108202C080E001C081E0DF91FE
:1029B000CF910895EF92FF920F931F93CF93DF93E0
:1029C000EC017B018A01BA010E94BB14882321F427
:1029D000CE010E948F1407C01D830C8388819981CA
:1029E000B7010E94103BCE01DF91CF911F910F9153
:1029F000FF90EF900895CF93DF93FC011182108236
:102A0000138212821582148216826115710559F0A3
:102A1000EB0109900020E9F7AE0141505040461B00
:102A2000570B0E94DA14DF91CF910895EF92FF9235
:102A3000CF93DF93EC01FB018617970761F060816C
:102A400071816115710529F0448155810E94DA1464
:102A500002C00E948F14CE01DF91CF91FF90EF90C2
:102A60000895FC0111821082138212821582148251
:102A700016820E94161508950F931F938C016115FD
:102A8000710561F0DB010D900020E9F7AD014150C7
:102A90005040461B570B0E94DA1402C00E948F144C
:102AA000C8011F910F910895EF92FF920F931F930A
:102AB000DF93CF93CDB7DEB7A1970FB6F894DEBF03
:102AC0000FBECDBF7C01CB01BA01F701118210828C
:102AD000138212821582148216828E010F5F1F4F9D
:102AE000A80130E00E94C33BC701B8010E943C1519
:102AF000A1960FB6F894DEBF0FBECDBFCF91DF9188
:102B00001F910F91FF90EF900895EF92FF920F9316
:102B10001F93DF93CF93CDB7DEB7A2970FB6F8948C
:102B2000DEBF0FBECDBF7C01CB01BA01F701118220
:102B30001082138212821582148216828E010F5F18
:102B40001F4FA80130E00E947A3BC701B8010E94E4
:102B50003C15A2960FB6F894DEBF0FBECDBFCF9145
:102B6000DF911F910F91FF90EF900895EF92FF92E8
:102B70000F931F93DF93CF93CDB7DEB761970FB657
:102B8000F894DEBF0FBECDBF7C01CB01F7011182EF
:102B90001082138212821582148216828E010F5FB8
:102BA0001F4FB80150E00E94E83BC701B8010E94E6
:102BB0003C1561960FB6F894DEBF0FBECDBFCF9126
:102BC000DF911F910F91FF90EF900895EF92FF9288
:102BD0000F931F93DF93CF93CDB7DEB762970FB6F6
:102BE000F894DEBF0FBECDBF7C01CB01F70111828F
:102BF0001082138212821582148216828E010F5F58
:102C00001F4FB80150E00E94593BC701B8010E9414
:102C10003C1562960FB6F894DEBF0FBECDBFCF91C4
:102C2000DF911F910F91FF90EF900895EF92FF9227
:102C30000F931F93DF93CF93CDB7DEB729970FB6CE
:102C4000F894DEBF0FBECDBF7C01862FF701118245
:102C500010821382128215821482168290E08E01F5
:102C60000F5F1F4FB80150E00E94E83BC701B80159
:102C70000E943C1529960FB6F894DEBF0FBECDBF5B
:102C8000CF91DF911F910F91FF90EF900895DF9307
:102C9000CF930F920F92CDB7DEB7FC011182108255
:102CA0001382128215821482168269831A82BE01EF
:102CB0006F5F7F4F0E943C150F900F90CF91DF9177
:102CC0000895EF92FF920F931F93CF93DF93EC0140
:102CD0007B010C811D8161157105B9F0411551050C
:102CE00091F0040F151FB8010E94BB14882369F0EE
:102CF000288139818C819D81820F931FB7010E94A9
:102D0000103B1D830C8381E001C080E0DF91CF91F7
:102D10001F910F91FF90EF900895FB0160817181E9
:102D2000448155810E94611608956115710561F015
:102D3000DB010D900020E9F7AD0141505040461BEA
:102D4000570B0E946116089580E00895DF93CF939A
:102D50000F920F92CDB7DEB769831A82BE016F5F03
:102D60007F4F41E050E00E9461160F900F90CF918D
:102D7000DF910895EF92FF920F931F93DF93CF930C
:102D800000D00F92CDB7DEB77C01862F90E08E0188
:102D90000F5F1F4FB8014AE050E00E94593BF80115
:102DA00001900020E9F7AF0141505040401B510B0A
:102DB000C701B8010E9461160F900F900F900F90FD
:102DC000CF91DF911F910F91FF90EF900895EF92B7
:102DD000FF920F931F93DF93CF93CDB7DEB7279763
:102DE0000FB6F894DEBF0FBECDBF7C01CB018E01C4
:102DF0000F5F1F4FB8014AE050E00E94593BF801B5
:102E000001900020E9F7AF0141505040401B510BA9
:102E1000C701B8010E94611627960FB6F894DEBF6D
:102E20000FBECDBFCF91DF911F910F91FF90EF901B
:102E30000895EF92FF920F931F93DF93CF9300D0EB
:102E400000D0CDB7DEB77C01CB018E010F5F1F4FE5
:102E5000B8014AE050E00E94E83BF80101900020F0
:102E6000E9F7AF0141505040401B510BC701B80179
:102E70000E94611626960FB6F894DEBF0FBECDBF36
:102E8000CF91DF911F910F91FF90EF900895EF92F6
:102E9000FF920F931F93DF93CF93CDB7DEB72C979D
:102EA0000FB6F894DEBF0FBECDBF7C01CB01BA01D7
:102EB0008E010F5F1F4FA8012AE030E00E947A3B8D
:102EC000F80101900020E9F7AF0141505040401B4C
:102ED000510BC701B8010E9461162C960FB6F894E9
:102EE000DEBF0FBECDBFCF91DF911F910F91FF903D
:102EF000EF900895EF92FF920F931F93DF93CF937C
:102F0000CDB7DEB72B970FB6F894DEBF0FBECDBF9F
:102F10007C01CB01BA018E010F5F1F4FA8012AE08F
:102F200030E00E94C33BF80101900020E9F7AF01B7
:102F300041505040401B510BC701B8010E9461161F
:102F40002B960FB6F894DEBF0FBECDBFCF91DF91A9
:102F50001F910F91FF90EF9008950F931F938C0195
:102F6000FB0160817181448155810E946116882333
:102F700019F4C8010E948F14C8011F910F91089580
:102F80000F931F938C016115710569F0DB010D90A2
:102F90000020E9F7AD0141505040461B570B0E94FD
:102FA0006116882319F4C8010E948F14C8011F916B
:102FB0000F9108950F931F938C010E94A6168823EA
:102FC00019F4C8010E948F14C8011F910F91089530
:102FD0000F931F938C010E94BA16882319F4C8011D
:102FE0000E948F14C8011F910F9108950F931F9392
:102FF0008C010E94E716882319F4C8010E948F14DF
:10300000C8011F910F9108950F931F938C010E9487
:103010001917882319F4C8010E948F14C8011F9141
:103020000F9108950F931F938C010E9447178823D7
:1030300019F4C8010E948F14C8011F910F910895BF
:103040000F931F938C010E947A17882319F4C801EB
:103050000E948F14C8011F910F910895CF93DF93A1
:10306000FC01DB0180819181009731F06D917C91B1
:10307000119761157105E9F4CD91DC9111972097B5
:1030800069F014962D913C9115972115310531F079
:10309000288130E0309521953F4F12C0009771F0A4
:1030A000248135812115310549F0FC01208130E072
:1030B00007C00E94073B282F392F02C020E030E0D4
:1030C000C901DF91CF910895FC0144815581FB0135
:1030D000248135814217530729F40E942E1821E0DC
:1030E000009709F020E0822F0895FC0184819581EA
:1030F000009741F46115710519F081E0FB0109C0E9
:1031000081E008950190F081E02D6115710531F4A1
:1031100081E09081992359F080E00895CF010E94C9
:10312000073B9C0181E02115310509F080E00895FD
:103130000E942E18892F881F8827881F08950E94B3
:103140002E1821E0181619060CF020E0822F0895A1
:103150000E942E1821E0181619060CF420E0822F88
:1031600008950E942E18892F8095881F8827881F10
:103170000895EF92FF920F931F93CF93DF93FC017B
:10318000DB018617970709F18481958114962D91AB
:103190003C91159782179307D1F40097B1F0008105
:1031A0001181CD91DC9111970BC090E00E94C43A3F
:1031B0007C01899190E00E94C43AE816F90639F43E
:1031C000F80181918F01882381F781E001C080E0BF
:1031D000DF91CF911F910F91FF90EF900895FC0127
:1031E000DB01CA0114964D915C91159724813581BC
:1031F000241B350B28173907A0F0208131812115B8
:10320000310579F06D917C9111976115710559F037
:10321000820F931F0E94173B9C0181E0211531050D
:1032200019F080E0089580E00895FC014481558103
:10323000FB01248135814217530728F040E050E01C
:103240000E94EF18089580E00895FC01DB0184815D
:10325000958114964D915C91159784179507B0F060
:10326000208131812115310589F06D917C91119773
:103270006115710569F0841B950B820F931F0E94E5
:10328000073B9C0181E02115310519F080E008958C
:1032900080E00895FC01848195816817790730F4F6
:1032A0000190F081E02DE60FF71F40830895FC01A7
:1032B000848195816817790720F480819181009736
:1032C00029F41092F00860EF78E002C0680F791FCF
:1032D000CB010895FC01848195816817790748F432
:1032E00080819181009739F0680F791FFB018081FF
:1032F000089580E0089580E008950E946A19089575
:103300000F931F93CF93DF93FC018B014115510560
:10331000F1F061157105D9F0C481D5812C173D07F5
:1033200018F0FB01108213C041505040C21BD30B58
:103330004C175D0708F4EA0160817181620F731F09
:10334000C801AE010E94253BC00FD11F1882DF913A
:10335000CF911F910F910895CF93DF93FC01CA0184
:10336000248135814217530768F4C081D1818C0FC5
:103370009D1F70E00E94FC3A009721F09C012C1BDD
:103380003D0B02C02FEF3FEFC901DF91CF910895B0
:1033900040E050E00E94AC190895CF93DF93FC0108
:1033A000CA01248135814217530778F4C081D18145
:1033B000FB01608171818C0F9D1F0E943F3B009734
:1033C00021F09C012C1B3D0B02C02FEF3FEFC901E8
:1033D000DF91CF91089540E050E00E94CD1908950B
:1033E000DF92EF92FF920F931F93CF93DF93EC0145
:1033F0008C819D8148175907E8F47A010894E11CF3
:10340000F11CE881F981EE0DFF1DD080108208814A
:103410001981C80170E00E94343B0E0D1F1DF80198
:10342000D082009739F028813981AC01421B530BBF
:103430009A0102C02FEF3FEFC901DF91CF911F9199
:103440000F91FF90EF90DF900895FC01448155812A
:10345000415050400E94F0190895AF92BF92CF9210
:10346000DF92EF92FF920F931F93CF93DF93FC01B4
:103470006B018A01DB0114962D913C911597211562
:10348000310551F184819581009731F182179307BD
:1034900018F14817590718F08C0101501040E080CE
:1034A000F180C701CFEFDFEF5701A00EB11E10C0B2
:1034B000F601608171810E943F3B009779F09C0189
:1034C0002E193F090217130708F49E010196E9011E
:1034D000A816B90668F702C0CFEFDFEFCE01DF9183
:1034E000CF911F910F91FF90EF90DF90CF90BF9001
:1034F000AF900895FC0144815581FB012481358101
:10350000421B530B0E942D1A0895AF92BF92CF9287
:10351000DF92EF92FF920F931F93CF93DF93F82EDA
:10352000E92E6B018A01E9012417350748F4342F8D
:10353000212F8E01C901A92EE5015E01B22EE50100
:103540008F2D9E2D69EB73E00E94FB14D60114961B
:103550008D919C91159780179107D8F08C179D0736
:1035600008F4EC01D601ED91FC911197EC0FFD1FD1
:10357000B08010826D917C91600F711F8F2D9E2DF8
:103580000E943C15D601ED91FC911197EC0FFD1FA7
:10359000B0828F2D9E2DDF91CF911F910F91FF90C3
:1035A000EF90DF90CF90BF90AF900895CF93DF93CF
:1035B000EC01FB01248135810E94851ACE01DF9147
:1035C000CF910895DC01ED91FC911197309729F48A
:1035D0000895861709F44083319680818823C9F7BE
:1035E00008952F923F924F925F926F927F928F92A7
:1035F0009F92AF92BF92CF92DF92EF92FF920F9382
:103600001F93CF93DF937C012B016A01DC01149699
:103610006D907C9015976114710409F4D9C0FB0179
:10362000848095808114910409F4D2C0DA01149643
:10363000AD90BC901597A818B908FC0100811181C4
:10364000A114B104F1F413C0D6016C9111967C91D0
:10365000119714964D915C911597CE010E94E13A15
:10366000D60114960D911C9115970C0F1D1FF20198
:1036700060817181C8010E943F3BEC01009721F7F6
:10368000A7C0B7FC02C0E30142C048012DC0E3015E
:10369000C01BD10BC401B801AE010E94E13AC80DB4
:1036A000D91DD6016C9111967C91119714964D916C
:1036B0005C911597CE010E94E13AD60114968D9047
:1036C0009C9015978C0E9D1EF20104811581060DAC
:1036D000171DD70114968D919C9115978A0D9B1DEE
:1036E00015969C938E931497F20160817181C801A5
:1036F0000E943F3B3C01009751F6C401B8010E9473
:10370000103B66C08C01080D191DCA0DDB1DD201CE
:103710006D917C91C8010E943F3B009799F7C615B7
:10372000D70509F455C0F701828193818C179D0755
:1037300008F045C0C701BE010E94A114882309F406
:1037400047C03DC0C701B201A9010E942D1AEC017A
:1037500097FD3EC0D7016D917C911197F201848154
:1037600095818C0F9D1F680F791F14964D915C9168
:103770001597481B590BCB018A0D9B1D0E94EA3AF5
:10378000D70114968D919C9115978A0D9B1D1596C6
:103790009C938E931497ED91FC911197E80FF91F6C
:1037A00010822D913C912C0F3D1FF601608171819B
:1037B00044815581C9010E94E13A9E0105C0D701AB
:1037C00014962D913C9115972150304037FFBACF78
:1037D000DF91CF911F910F91FF90EF90DF90CF90ED
:1037E000BF90AF909F908F907F906F905F904F9021
:1037F0003F902F900895CF93DF93FC01C081D1813A
:10380000209729F407C090E00E94C43A89938881E8
:103810008823C9F7DF91CF910895CF93DF93FC01FF
:10382000C081D181209729F407C090E00E94CC3A52
:10383000899388818823C9F7DF91CF910895AF924A
:10384000BF92CF92DF92EF92FF920F931F93CF938D
:10385000DF936C01DC01ED90FC901197E114F10411
:1038600009F43FC01496AD90BC901597A114B10413
:10387000C1F18701E80188810F5F1F4F90E00E942E
:10388000BC3A0097B9F78501015010400E0D1F1D7D
:10389000F801808190E00E94BC3A009731F00C174B
:1038A0001D0718F001501040F3CF0F5F1F4F0C1B86
:1038B0001D0BD60115961C930E931497EC16FD065E
:1038C00028F4C701BE01A8010E94E13AD601ED919A
:1038D000FC91119714968D919C911597E80FF91F03
:1038E0001082DF91CF911F910F91FF90EF90DF90A9
:1038F000CF90BF90AF900895FC0180819181009797
:1039000029F00E94953A9B01AC0103C020E030E011
:10391000A901B901CA0108950E942A3808950E9498
:10392000C438089521E030E0FC018081882311F043
:1039300020E030E0C901089521E0FC0120830895D2
:10394000089508951F920F920FB60F9211242F938E
:103950003F938F939F93AF93BF938091F50890917E
:10396000F608A091F708B091F8083091F90801968F
:10397000A11DB11D232F2D5F2D3720F02D5701964E
:10398000A11DB11D2093F9088093F5089093F608C6
:10399000A093F708B093F8088091F1089091F2088D
:1039A000A091F308B091F4080196A11DB11D809378
:1039B000F1089093F208A093F308B093F408BF9134
:1039C000AF919F918F913F912F910F900FBE0F90CC
:1039D0001F9018958FB7F8942091F5083091F6084C
:1039E0004091F7085091F8088FBFB901CA010895B6
:1039F0009FB7F8942091F1083091F2084091F308B4
:103A00005091F40886B5A89B06C08F3F21F02F5F28
:103A10003F4F4F4F5F4F9FBF542F432F322F2227CF
:103A2000280F311D411D511D82E0220F331F441FFD
:103A3000551F8A95D1F7B901CA010895EF92FF92F7
:103A40000F931F93CF93DF937B018C010E94F81C8F
:103A5000EB010FC00E94F81C6C1B7D0B83E0683EDD
:103A6000780738F00894E108F10801091109C851F4
:103A7000DC4FE114F1040105110561F7DF91CF91ED
:103A80001F910F91FF90EF900895019739F0880FE3
:103A9000991F880F991F02970197F1F7089578945D
:103AA00084B5826084BD84B5816084BD85B5826043
:103AB00085BD85B5816085BDEEE6F0E080818160E1
:103AC0008083E1E8F0E010828081826080838081E1
:103AD00081608083E0E8F0E0808181608083E1EBB9
:103AE000F0E0808184608083E0EBF0E080818160A1
:103AF0008083E1E9F0E08081826080838081816061
:103B00008083E0E9F0E0808181608083E1EAF0E099
:103B1000808182608083808181608083E0EAF0E040
:103B2000808181608083E1E2F1E080818260808336
:103B3000808181608083E0E2F1E080818160808328
:103B4000EAE7F0E080818460808380818260808306
:103B50008081816080838081806880831092C10031
:103B60000895893009F449C08A30A0F4843051F1B5
:103B7000853040F4823079F1833000F5813009F0EE
:103B800063C026C0873079F1883098F5863009F017
:103B90005BC025C08D3009F442C08E3028F48B30D4
:103BA000B1F18C30C0F52DC0803109F442C08131B3
:103BB00009F445C08F3009F047C037C080918000BC
:103BC0008F7703C0809180008F7D8093800008955F
:103BD00084B58F7702C084B58F7D84BD08958091B0
:103BE000B0008F7703C08091B0008F7D8093B000CC
:103BF0000895809190008F7707C0809190008F7D0D
:103C000003C080919000877F8093900008958091F9
:103C1000A0008F7707C08091A0008F7D03C08091A6
:103C2000A000877F8093A0000895809120018F7766
:103C300003C0809120018F7D8093200108958091A1
:103C40002001877F809320010895EF92FF92CF9308
:103C5000DF9390E0FC01E858FE4F44918E5C9E4F4C
:103C6000FC018491882389F190E0880F991FFC0161
:103C7000EC51FF4F25913491D90182509F4FFC01A7
:103C800025913491E22EE7017E01F32EE7016623B0
:103C900049F49FB7F8948C91409584238C93888144
:103CA00084230BC0623059F49FB7F8948C91242F71
:103CB000209582238C938881842B888305C09FB7AD
:103CC000F8948C91842B8C939FBFDF91CF91FF90C0
:103CD000EF9008950F931F93DF93CF930F92CDB77B
:103CE000DEB7282F30E0F901E254FE4F8491F9014C
:103CF000E858FE4F14912E5C3E4FF90104910023C9
:103D0000D9F0882321F069830E94B11D6981E02FD9
:103D1000F0E0EE0FFF1FE250FF4F85919491DC0120
:103D20009FB7F894662321F48C911095812302C0EB
:103D30008C91812B8C939FBF0F90CF91DF911F911E
:103D40000F9108950F931F93282F30E0F901E2544B
:103D5000FE4F8491F901E858FE4F04912E5C3E4FCE
:103D6000F9011491112391F0882311F00E94B11DE3
:103D7000E12FF0E0EE0FFF1FE85EFE4F859194917A
:103D8000DC018C91802321E030E011F420E030E070
:103D9000C9011F910F91089590E00496982F8827EC
:103DA000860F971F0E945A23089562E070E00E94D8
:103DB000E605089563E070E00E94E60508950F931C
:103DC0001F93182F68E270E00E94E605082F812FEC
:103DD00069E270E00E94E605502F40E0282F30E0B5
:103DE000242B352BC9011F910F91089560E070E0DD
:103DF0000E94E605089590E00496982F8827860F84
:103E0000971F642F0E9485220895462F62E070E07C
:103E10000E94FB1E08950F931F93182F062F472F04
:103E200060E170E00E94FB1E812F61E170E0402F95
:103E30000E94FB1E1F910F9108950F931F93182F3F
:103E4000062F472F68E270E00E94FB1E812F69E277
:103E500070E0402F0E94FB1E1F910F910895462F86
:103E600060E070E00E94FB1E08950F931F93182FCF
:103E7000062F472F64E070E00E94FB1E812F65E053
:103E800070E0402F0E94FB1E1F910F910895FB01CF
:103E9000BA0190E00496982F88278E0F9F1FA901E2
:103EA0000E9427230895AB016CE070E024E030E02D
:103EB0000E94471F08951F93182F8CEF98E0612FE1
:103EC00040E10E941C25812F6FEF0E94051F1F916A
:103ED0000895EF92FF921F93DF93CF930F920F926B
:103EE000CDB7DEB7182F7A01862F8150853038F58F
:103EF000812F2A8369830E945B1F2A816981622B3B
:103F0000812F0E942F1FE114F10419F0812FB701B6
:103F10000CC02091FA083091FB082F5F3F4F30937F
:103F2000FB082093FA08812FB9010E94351F8CEFFE
:103F300098E0612F41E00E941C2581E001C080E0F3
:103F40000F900F90CF91DF911F91FF90EF90089508
:103F5000DF93CF930F92CDB7DEB7682F69830E94AE
:103F6000EF056981833139F48CEF98E042E00E94DB
:103F70001C2581E001C080E00F90CF91DF91089572
:103F80001F93CF93DF93182FFB01EA0180818F3FAE
:103F900051F481818F3F91F482818F3F79F4838145
:103FA0008F3F61F41DC0882349F48181882331F457
:103FB0008281882319F48381882391F0209781F0EE
:103FC000812FBF010E94531F812FBE010E940B1F32
:103FD0008CEF98E0612F44E00E941C2581E001C035
:103FE00080E0DF91CF911F910895682F8CEF98E0CA
:103FF00048E00E941C250895CF92DF92EF92FF9235
:104000001F93CF93DF93182F7B01C42EE6016E011F
:10401000D52EE60138E0C130D30710F0C0E0D8E07B
:104020008CEF98E0612F0E945E246C01812F0E942A
:10403000EF05873111F08C3121F4CC16DD0680F3C9
:1040400002C0C0E0D0E08CEF98E0612FA7019E0194
:104050000E9406248CEF98E0612F40E20E941C250C
:104060000BC0812F0E94EF05882331F4812F0E941D
:104070005B1FC0E0D0E009C0812F0E94D51E84FFE5
:10408000F0CF812F60E10E94051FCE01DF91CF911B
:104090001F91FF90EF90DF90CF900895AF92BF9265
:1040A000CF92DF92EF92FF920F931F93CF93DF9304
:1040B000F82E6B018A018CEF98E06F2D0E94292465
:1040C000A82EE5015E01B92EE501209751F48F2D50
:1040D0000E94EF058431D1F08823C1F08C31B1F01A
:1040E00021C00A151B050CF4E8011C161D0674F40A
:1040F0008CEF98E06F2DA6019E0100E00E94EB245A
:104100008CEF98E06F2D40E40E941C25CE01DF91DA
:10411000CF911F910F91FF90EF90DF90CF90BF90C4
:10412000AF900895CFEFDFEFF1CF0F93282FAB01C2
:104130008CEF98E0622F21E030E001E00E94EB2458
:1041400081E090E00F910895AF92BF92CF92DF92FD
:10415000EF92FF920F931F93CF93DF93F82E6B0193
:10416000F9018081882349F48181882331F4828197
:10417000882319F483818823D1F101151105B9F140
:10418000A42EE5015E01B52EE50128E0C130D2077D
:1041900010F0C0E0D8E0209761F18F2DBF010E94A0
:1041A000531F8F2DB8010E940B1F8CEF98E06F2DCD
:1041B000A6019E010E9406248CEF98E06F2D40E23C
:1041C0000E941C250AC08F2D0E94D51E83FF05C0AA
:1041D0008F2D68E10E94051F0AC08F2D0E94D51EF9
:1041E00084FFF1CF8F2D60E10E94051F02C0C0E067
:1041F000D0E0CE01DF91CF911F910F91FF90EF9012
:10420000DF90CF90BF90AF9008956F927F928F9282
:104210009F92AF92BF92DF92EF92FF920F931F9304
:10422000DF93CF93CDB7DEB728970FB6F894DEBFF4
:104230000FBECDBFD82E4B01790138014115510574
:1042400009F482C00E94DF1E5C018D2D0E94F61EC3
:1042500090E0877090708330910551F18430910522
:1042600009F443C08230910509F065C08CEF98E0F5
:104270006D2DA5019E012F5F3F4F08E010E00E94C9
:10428000B024A00EB11E8981F70180838A818183C9
:104290008B8182838C8183839D8180E02E81820F3C
:1042A000911DF301918380839F8180E0288519C04F
:1042B0008CEF98E06D2DA5019E012F5F3F4F06E02A
:1042C00010E00E94B024A00EB11E8981F701808306
:1042D0008A8181838B8182838C8183839D8180E02D
:1042E0002E817C01E20EF11C17C08CEF98E06D2D41
:1042F000A5019E012F5F3F4F02E010E00E94B02415
:10430000A00EB11E998180E0EA80FF242EEF3FEFDE
:10431000E20EF31EE80EF91E8CEF98E06D2DA5015C
:10432000940187010E94B024B5016E0D7F1D8D2D73
:104330000E941D1F02C0EE24FF248CEF98E06D2D1B
:1043400040E40E941C2502C0EE24FF24C7012896E9
:104350000FB6F894DEBF0FBECDBFCF91DF911F9196
:104360000F91FF90EF90DF90BF90AF909F908F9054
:104370007F906F900895EF92FF921F93CF93DF93FA
:10438000182F9B0188E04130580728F4411551054A
:1043900041F1EA0102C0C0E0D8E08CEF98E0612F63
:1043A000A9019E010E9406248CEF98E0612F40E253
:1043B0000E941C250CC0812F0E94EF05812F0E94B6
:1043C000D51E83FF04C0812F0E945B1F0AC0812F6E
:1043D0000E94D51E84FFEFCF812F60E10E94051F50
:1043E00002C0C0E0D0E0CE01DF91CF911F91FF90DD
:1043F000EF9008958F929F92AF92BF92CF92DF92EB
:10440000EF92FF920F931F93CF93DF93182F6B01BF
:104410005A01E9018CEF98E0612F0E945E248C170D
:104420009D0738F48CEF98E0612F0E945E247C0198
:1044300001C07E018CEF98E0612FA60195018701F4
:104440000E94B623C701DF91CF911F910F91FF907A
:10445000EF90DF90CF90BF90AF909F908F90089596
:104460001F93CF93DF93182FFB01EA0180818823EC
:1044700049F48181882331F48281882319F483816E
:10448000882369F0209759F0812FBF010E94531FA4
:10449000812FBE010E940B1F21E030E002C020E00E
:1044A00030E0C901DF91CF911F9108951F93182F1C
:1044B0008CEF98E0612F40E20E941C250CC0812FF8
:1044C0000E94D51E83FF07C0812F68E10E94051F4F
:1044D00020E030E00BC0812F0E94D51E84FFEFCF7B
:1044E000812F60E10E94051F21E030E0C9011F918A
:1044F00008958EBD0DB407FEFDCF8EB50895249AA4
:1045000008952C9808952C9A08951F93DF93CF93C4
:104510000F920F92CDB7DEB7182F6A8399830E944E
:10452000812280EF0E9479229981892F0E9479222D
:10453000812F0E9479226A81862F0E9479220E940F
:10454000832281E00F900F90CF91DF911F9108950A
:1045500090E00496982F8827860F971F642F0E945B
:1045600085220895462F61E070E00E94FB1E0895A9
:104570000F931F93182F062F472F68E270E00E94B9
:10458000FB1E812F69E270E0402F0E94FB1E1F91ED
:104590000F9108950F931F93182F062F472F64E252
:1045A00070E00E94FB1E812F65E270E0402F0E94A8
:1045B000FB1E1F910F910895682F80E090E00E94EC
:1045C00085220895682F8BE190E00E94852208954E
:1045D000682F8AE190E00E9485220895CF93DF93AF
:1045E000EC016CE271E080E090E00E941E1D0E94F0
:1045F000472F0E947F2280E80E94DC2285E50E94EE
:10460000E22285E50E94E82280E090E49983888395
:1046100080E090E69987888780E098E49B838A838E
:1046200080E098E69B878A8780E090E59D838C8375
:1046300080E090E79D878C8780E098E59F838E835C
:1046400080E098E79F878E87DF91CF910895CF9282
:10465000DF92EF92FF920F931F93CF93DF936C0142
:10466000EA01E62EF72E00E010E017C00E9481223A
:1046700080EF0E9479228D2D0E9479228C2D0E943C
:1046800079220894C11CD11CF70181917F010E94FD
:1046900079220E9483220F5F1F4F0C171D0730F3F2
:1046A000CE01DF91CF911F910F91FF90EF90DF909E
:1046B000CF9008951F93DF93CF930F92CDB7DEB7BE
:1046C000182F99830E9481228FE00E94792299817C
:1046D000892F0E947922812F0E94792280E00E94F6
:1046E000792289830E94832289810F90CF91DF9163
:1046F0001F91089590E00496982F8827860F971FA2
:104700000E945A23089561E070E00E94E605089532
:104710000F931F93182F68E270E00E94E605082FA0
:10472000812F69E270E00E94E605502F40E0282FBB
:1047300030E0242B352BC9011F910F9108950F9361
:104740001F93182F64E270E00E94E605082F812F66
:1047500065E270E00E94E605502F40E0282F30E02F
:10476000242B352BC9011F910F9108959F92AF9271
:10477000BF92CF92DF92EF92FF920F931F93CF934E
:10478000DF937C01962E6A015901862F0E949F2398
:10479000C80ED91E96013770892D90E0880F991F99
:1047A000E80EF91EF70180819181820F931FA90104
:1047B000400F511FF8E041305F0790F0C0E0D8E0B3
:1047C000C21BD30BB501AE010E942723B5016C0FAC
:1047D0007D1FA8014C1B5D0BF7018081918102C0F8
:1047E000B501A8010E942723B601600F711F892D12
:1047F0000E94CA22DF91CF911F910F91FF90EF90FD
:10480000DF90CF90BF90AF909F9008950F931F932C
:10481000FA01890140E050E09F010E94B6231F91F8
:104820000F9108950F931F93182F66E270E00E9476
:10483000E605082F812F67E270E00E94E605502F01
:1048400040E0282F30E0242B352BC9011F910F9118
:104850000895EF92FF920F931F93CF93DF93F62E5D
:10486000C0E0D0E08F2D0E9412248C01009721F02F
:104870008F2D0E941224EC01C017D10799F7CE01A9
:10488000DF91CF911F910F91FF90EF9008950F93BB
:104890001F93182F60E270E00E94E605082F812F19
:1048A00061E270E00E94E605502F40E0282F30E0E2
:1048B000242B352BC9011F910F910895EF92FF9280
:1048C0000F931F93CF93DF93F62EC0E0D0E08F2D90
:1048D0000E9447248C01009721F08F2D0E944724CD
:1048E000EC01C017D10799F7CE01DF91CF911F914D
:1048F0000F91FF90EF900895CF92DF92EF92FF9289
:104900000F931F93CF93DF936C01EA01E62EF72EEE
:1049100000E010E018C00E9481228FE00E947922FE
:104920008D2D0E9479228C2D0E9479220894C11C21
:10493000D11C80E00E947922F70181937F010E94BF
:1049400083220F5F1F4F0C171D0728F3CE01DF9145
:10495000CF911F910F91FF90EF90DF90CF9008952E
:10496000CF92DF92EF92FF920F931F93CF93DF933B
:10497000690178015770C62FD0E02496CC0FDD1F57
:10498000C80FD91F88819981840F951F9801240F22
:10499000351F68E02130360788F000E018E0041B7E
:1049A000150BB601A8010E947C24B601600F711F8F
:1049B000A701401B510B8881998102C0B601A80153
:1049C0000E947C24DF91CF911F910F91FF90EF9077
:1049D000DF90CF9008958F929F92AF92BF92CF9227
:1049E000DF92EF92FF920F931F93CF93DF935C01BF
:1049F000E62E4A016901F02E862F0E94DF1EEC018F
:104A0000C5016E2DAE01940186010E94B024FF20E5
:104A100031F4BE016C0D7D1D8E2D0E941D1FDF9196
:104A2000CF911F910F91FF90EF90DF90CF90BF90AB
:104A3000AF909F908F9008951F93162F862F642F0D
:104A40000E94B222812F0E9483238823D9F71F91CD
:104A50000895FC012BE933E031832083DB0151967B
:104A60002D913D914D915C915497228333834483E2
:104A7000558308950E96FC0184E1DF011D928A950D
:104A8000E9F7089508952F923F924F925F926F92A7
:104A90007F928F929F92AF92BF92CF92DF92EF92CE
:104AA000FF920F931F93DF93CF93CDB7DEB7EB97B2
:104AB0000FB6F894DEBF0FBECDBF5C013A014B01CB
:104AC00029010E94EA1C6B017C018501095B1F4FD3
:104AD00012C00E94EA1C6C197D098E099F09661696
:104AE00077068806990608F419C262E370E080E050
:104AF00090E00E941E1DC8010E94E10918161906C7
:104B000044F7C801BE01635F7F4F42E250E00E945C
:104B100095098D85823009F0FCC1F501E45AFF4FFB
:104B2000808191818334910509F0F3C129893A8903
:104B30004B895C89C52EDD24EE24FF24B22FAA27E1
:104B400099278827C82AD92AEA2AFB2AB42FA32F13
:104B5000922F882780709070B070C82AD92AEA2ACC
:104B6000FB2A232F342F452F55272070407050707B
:104B7000C22AD32AE42AF52AF201C082D182E28233
:104B8000F382B501685F7F4FCE01899646E050E021
:104B90000E94D43A009799F4F50180819181A28115
:104BA000B381C816D906EA06FB0648F084819581D0
:104BB000A681B7818C159D05AE05BF0528F4C801F7
:104BC0000E9469096624ACC18D8D9E8DAF8DB8A100
:104BD000F50186879787A08BB18BEEECEE2EF12C3A
:104BE000C8010E94B7090894E108F108E114F10432
:104BF000B9F76624C501829699AB88ABF501B696E4
:104C0000FBABEAABC5018A969DAB8CAB7AE1472E34
:104C1000512C4A0C5B1C1E010894211C311C67E0BE
:104C2000862E912C8C0E9D1EF5017296FFABEEAB7D
:104C3000C501469699AF88AFF5017E96FBAFEAAF06
:104C40006FA6350178015BC1C7010E94B7098333A4
:104C5000910509F40FC18433910594F481309105D5
:104C600079F18230910524F4009709F448C13CC1E0
:104C70008330910561F18630910509F035C142C05C
:104C80008A33910509F48AC08B33910544F4853346
:104C9000910571F08633910509F026C14EC08B3322
:104CA000910509F4B1C08F3F910509F01DC127C1DD
:104CB000C7010E94B709C7010E94B7098FA71FC18A
:104CC000C7010E94B709C7016EA97FA95BC0C701D0
:104CD0000E94B709082FC70168AD79AD44E050E0E4
:104CE0000E949509CC24DD2410E00450104006C039
:104CF000C7010E94B7090894C11CD11CC016D10677
:104D0000BCF3FDC0C7010E94B709082FC7016AADF7
:104D10007BAD44E050E00E949509CC24DD2410E0F6
:104D20000450104006C0C7010E94B7090894C11C76
:104D3000D11CC016D106BCF3E2C0C7010E94B7095E
:104D4000082FF301828D938DA48DB58D0097A10559
:104D5000B105B1F0C101B2010E94E210C401B70176
:104D60000E943A092B813C814D815E81F401828150
:104D70009381A481B581281739074A075B0759F445
:104D8000C701B20144E050E00E949509B8C0C701D4
:104D90000E94B70901500023D1F7B1C0C7010E949A
:104DA000B709C7016AA97BA944E050E00E949509B0
:104DB000F301A6A0B7A0C0A4D1A48D2D9927AA273E
:104DC000BB275A2D442733272227822B932BA42B32
:104DD000B52B5C2D4B2D3A2D222720703070507052
:104DE000822B932BA42BB52B55274D2D3C2D2B2DF2
:104DF000207040705070822B932BA42BB52B86A370
:104E000097A3A0A7B1A77BC0C7010E94B709C7019C
:104E10006CA97DA944E050E00E949509F301A2A489
:104E2000B3A4C4A4D5A48D2D9927AA27BB275A2D96
:104E3000442733272227822B932BA42BB52B5C2DC1
:104E40004B2D3A2D2227207030705070822B932BDF
:104E5000A42BB52B55274D2D3C2D2B2D20704070AC
:104E60005070822B932BA42BB52B82A793A7A4A7BA
:104E7000B5A745C0C7010E94B709C70168A979A9AC
:104E800044E050E00E949509F301A2A0B3A0C4A0A1
:104E9000D5A08D2D9927AA27BB275A2D4427332724
:104EA0002227822B932BA42BB52B5C2D4B2D3A2D37
:104EB0002227207030705070822B932BA42BB52B9F
:104EC00055274D2D3C2D2B2D207040705070822B7E
:104ED000932BA42BB52B82A393A3A4A3B5A386A73E
:104EE00097A7A0ABB1AB0BC0C7010E94B709082FB1
:104EF00004C0C7010E94B70901500023D1F7C701C0
:104F00000E944F09181619060CF49ECE6FA4870153
:104F100001C06624C8010E94690902C066246A941F
:104F2000862DEB960FB6F894DEBF0FBECDBFCF91A6
:104F3000DF911F910F91FF90EF90DF90CF90BF9086
:104F4000AF909F908F907F906F905F904F903F9029
:104F50002F900895CF93DF93EC01625F7F4F0E9403
:104F6000E210CE01DF91CF910895CF93DF93EC0152
:104F70006E5E7F4F0E94E210CE01DF91CF910895C7
:104F8000CF93DF93EC016A5E7F4F0E94E210CE0167
:104F9000DF91CF910895CF93DF93EC01665E7F4F51
:104FA0000E94E210CE01DF91CF910895CF93DF935D
:104FB000EC01625E7F4F0E94E210CE01DF91CF9143
:104FC000089580E3FB018083329601C0482F842F2F
:104FD00082958F704F704A3010F4405D01C0495C7B
:104FE0004293882399F708954F925F926F927F9230
:104FF0008F929F92AF92BF92CF92DF92EF92FF92E9
:105000000F931F93DF93CF93CDB7DEB7AC970FB657
:10501000F894DEBF0FBECDBF7C01562E442E752EF8
:10502000FDE08F2E912C8C0E9D1EE0E26E2EF40181
:10503000262D11922A95E9F7CE0101966FEF4FEFD9
:105040002FEF0FEF0E94CC108701095B1F4F8BE9F8
:1050500093E098878F838B819C81AD81BE81898706
:105060009A87AB87BC87C801BE01695F7F4F43E465
:1050700050E00E944F0AEFEF8F3F9E0709F4F2C005
:1050800081E08D878E8786E08F87188AF701A4805C
:10509000B580C680D7808D2D9927AA27BB275A2D8A
:1050A000442733272227822B932BA42BB52B5C2D4F
:1050B0004B2D3A2D2227207030705070822B932B6D
:1050C000A42BB52B55274D2D3C2D2B2D207040703A
:1050D0005070822B932BA42BB52BF40184839583E2
:1050E000A683B7837D8A4E8A80E890E09387828783
:1050F000C801B4014CE150E00E94340AF40111925D
:105100006A94E9F738E0632E712C6E0C7F1CD40191
:10511000F30186E001900D928150E1F72DE0C22E5F
:10512000D12CCC0EDD1EC801B60140E150E00E943A
:10513000340A80E2F60111928A95E9F7AA24BB2489
:105140008C2CCD2CC801682D7C2D40E250E00E94B3
:10515000340A0894A11CB11CF6E0AF16B10491F713
:1051600083E68D8792E89E8793E59F87888B85E30A
:10517000898B81E08A8B5B8A9DE39C8B97E09D8B7A
:105180008E8BDE015796F30186E001900D928150DF
:10519000E1F78CE08D8F8E8F9DE0C92ED12CCC0E47
:1051A000DD1ECE014F966AEB73E00E94103BC701F3
:1051B000BE016B5D7F4FF70143850E94E127C70168
:1051C000BE01695D7F4FF70144850E94E127C70159
:1051D000BE01675D7F4FF70145850E94E127C80149
:1051E000B6014EE150E00E94340AF52DF330F1F49F
:1051F00082E38D8784E08E87F70196859F87978568
:10520000988B9089998B91899A8B96E39B8B8C8B49
:10521000828D8D8B838D8E8B848D8F8B858D888FEA
:10522000C801B6014CE050E00E94340A87E38D8744
:1052300086E08E8791E09F8793E0988B898B8FE043
:105240008A8B8AE38B8B8BE38C8B8FEF8D8BC801E2
:10525000BE01635F7F4F49E050E00E94340AC801FD
:105260000E944A0AAC960FB6F894DEBF0FBECDBFBF
:10527000CF91DF911F910F91FF90EF90DF90CF9032
:10528000BF90AF909F908F907F906F905F904F9066
:1052900008952F923F924F925F926F927F928F92DA
:1052A0009F92AF92BF92CF92DF92EF92FF920F93B5
:1052B0001F93DF93CF93CDB7DEB728970FB6F8943F
:1052C000DEBF0FBECDBF8C0161E070E080E090E0FA
:1052D00020ED37E040E050E00E94A72FD80114965F
:1052E0006C93149715967C93159716968C93169736
:1052F00017969C9317976C9311967C93119712961F
:105300008C93129713969C93F801E95BFF4FFE83F1
:10531000ED83CF0164E470E00E947B0A882309F4E6
:1053200022C10E94EA1C4B015C016624772466E4DA
:10533000C62ED12CC00ED11EC801CE9698878F8361
:1053400053E0E52E48EE242E43E0342E412C512C20
:10535000F4C08823F9F4F80184819581A681B7818E
:105360000196A11DB11D84839583A683B7830E94F6
:10537000EA1C681979098A099B09A20191010E9416
:10538000B237C80161E0A9010E94F42781E0D6018B
:105390008C93BDC08430F9F4F80184819581A68195
:1053A000B7810196A11DB11D84839583A683B78320
:1053B0000E94EA1C681979098A099B09A2019101D6
:1053C0000E94B237C80163E0A9010E94F427E2E01D
:1053D000D601EC939CC0813059F5AF81B8854D91D1
:1053E0005D916D917C91C8019E012F5F3F4F0E949E
:1053F0004325F82E823009F085C089819A81AB81DE
:10540000BC81F80184839583A683B7830E94EA1C3C
:10541000681979098A099B09A20191010E94B23792
:10542000C80163E0A9010E94F427D601FC926FC075
:10543000823009F06CC0EF81F88540815181628132
:105440007381C8019E012F5F3F4F0E944325F82EB4
:10545000853009F052C0D601EC92F80182A193A1E7
:10546000A4A1B5A10097A105B10541F484E893E09A
:10547000A0E0B0E082A393A3A4A3B5A3F80186A102
:1054800097A1A0A5B1A50097A105B10561F482A1DE
:1054900093A1A4A1B5A1B695A7959795879586A345
:1054A00097A3A0A7B1A7F80182A593A5A4A5B5A528
:1054B0000097A105B10561F486A197A1A0A5B1A5AA
:1054C000880F991FAA1FBB1F82A793A7A4A7B5A7E0
:1054D000F80186A197A1A0A5B1A586A797A7A0AB23
:1054E000B1AB82A593A5A4A5B5A582AB93ABA4ABA4
:1054F000B5ABA1E06A2E712C0AC0863019F4D60132
:105500001C9205C0BF2DBF3F11F4F6011082F1E0DF
:105510006F16710491F00E94EA1C9B01AC012819DE
:1055200039094A095B09F80182AD93ADA4ADB5AD67
:1055300082179307A407B50728F0D6018C91833012
:1055400009F007CF8D819E810E94580AF80184815D
:105550009581A681B7810196A11DB11D8483958394
:10556000A683B78302C066247724C30128960FB6AA
:10557000F894DEBF0FBECDBFCF91DF911F910F9189
:10558000FF90EF90DF90CF90BF90AF909F908F9063
:105590007F906F905F904F903F902F9008958F92E3
:1055A0009F92AF92BF92CF92DF92EF92FF920F93B2
:1055B0001F93CF93DF93EC010E94EA1C4B015C0127
:1055C0008EA99FA9A8ADB9ADF2E4CF2ED12CCC0EF7
:1055D000DD1E0097A105B10509F498C0F601808190
:1055E0009181A281B381A5019401281B390B4A0B3B
:1055F0005B0BCA01B90157FD50C0E8EEEE2EE3E0A7
:10560000FE2E012D112DE80CF91C0A1D1B1D28EE84
:1056100033E040E050E00E94D437E61AF70A080B66
:10562000190BF601E082F18202831383DA01C901CA
:105630000196A11DB11D2EA53FA548A959A97C0120
:105640008D01EE0CFF1C001F111F2E153F0540079A
:1056500051072CF41EA61FA618AA19AA08C0281BB9
:10566000390B4A0B5B0B2EA73FA748AB59AB2AA9B6
:105670003BA94CA95DA92E153F05400751072CF405
:105680001AAA1BAA1CAA1DAA08C0281B390B4A0B60
:105690005B0B2AAB3BAB4CAB5DABFE01EA5BFF4F58
:1056A0008081833091F48EA59FA5A8A9B9A9181669
:1056B00019061A061B064CF084E08083CE010E9476
:1056C0004929BC016F5F7F4F02C060E070E0FE01BE
:1056D000EA5BFF4F8081833011F0882321F52AA9EE
:1056E0003BA94CA95DA91216130614061506DCF099
:1056F000FE01EA5BFF4F1082CE010E943A25CE01E7
:105700000E944929BC016D5F7F4F0DC0D501C401C6
:1057100088519C4FAF4FBF4FF60180839183A28386
:10572000B38360E070E08EAA9FAAA8AEB9AECB01A9
:10573000DF91CF911F910F91FF90EF90DF90CF906D
:10574000BF90AF909F908F900895CF92DF92EF928D
:10575000FF920F931F93DF93CF930F920F92CDB7CA
:10576000DEB76C01DC0192961D921D921D921C9277
:105770009597FC0116A217A210A611A69A961D9243
:105780001D921D921C929D9716AA17AA10AE11AEDB
:10579000DA962D933D934D935C93DD97FE96E082D0
:1057A000F182028313838C01085F1F4F86E0D801CA
:1057B0001D928A95E9F7C60169837A830E943A258A
:1057C000D80169817A81862F972FFC0186E00190AC
:1057D0000D928150E1F7F601EA5BFF4F1082C6019E
:1057E0000E9449290F900F90CF91DF911F910F9147
:1057F000FF90EF90DF90CF9008950F938CE099E0A9
:1058000060E040E020E000E00E94CC100F9108959D
:10581000FC012BE933E031832083DB0151962D918C
:105820003D914D915C9154972283338344835583FA
:105830000895FC01DB0112962D913D914D915C91F3
:1058400015972283338344835583178216820895E4
:10585000E62FF72FDF018D918823E9F780E090E0B4
:1058600020E030E01EC08F3F910509F08CF5DA0191
:10587000A20FB31F12968C9312972F5F3F4F80E0B9
:1058800090E00FC0BC01660F771FB3E0880F991F2F
:10589000BA95E1F7680F791F8A2F90E0C097860FBD
:1058A000971FA191AA2331F0243031051CF4AE32A8
:1058B00049F7D9CF8F3F910509F054F424303105D1
:1058C0003CF4240F351FF901828321E030E002C04F
:1058D00020E030E0C90108956F927F928F929F92ED
:1058E000AF92BF92CF92DF92EF92FF920F931F93EE
:1058F000DF93CF9300D0CDB7DEB77C01A62E872EE5
:105900000E94EA1CF701778366838701085F1F4FB7
:10591000B7016A5F7F4FC80142E050E00E94340A3D
:1059200081E090E09B838A8392E0E92EF12CEC0EDB
:10593000FD1EC801B70142E050E00E94340A80E039
:1059400091E09B838A83C801B70142E050E00E9446
:10595000340A1B821A82C801B70142E050E00E945B
:10596000340AC801B70142E050E00E94340AC8017D
:10597000B70142E050E00E94340ACA2CD82CB82C5F
:105980003E010894611C711C1FC0F5016F018191DB
:10599000882311F08E32D1F746018A189B0818141B
:1059A000190474F48C2D8A198983C801B30141E06C
:1059B00050E00E94340AC801B501A4010E94340AD3
:1059C00056010894A11CB11CF60180818823E9F6D8
:1059D0001982C801BE016F5F7F4F41E050E00E9415
:1059E000340AC12C81E0D82EDB82CA82C801B701FB
:1059F00042E050E00E94340ADB82CA82C801B7014B
:105A000042E050E00E94340A81E090E00F900F9055
:105A10000F90CF91DF911F910F91FF90EF90DF904A
:105A2000CF90BF90AF909F908F907F906F90089590
:105A30002F923F924F925F926F927F928F929F929E
:105A4000AF92BF92CF92DF92EF92FF920F931F938C
:105A5000DF93CF93CDB7DEB76B970FB6F894DEBF69
:105A60000FBECDBF6C014B015B8F4A8F0E94EA1CB9
:105A70002B013C0158E0E52EF12CEC0CFD1CAA2476
:105A8000BB2412C00E94EA1C641975098609970993
:105A900086169706A806B90608F427C162E370E0E7
:105AA00080E090E00E941E1DC7010E94E1091816C7
:105AB000190644F7F60182809380A480B5808E0198
:105AC000085F1F4FC801B7010E943A09F80182819F
:105AD0009381A481B58188169906AA06BB0609F0B0
